:020000040800F2
:1000000078060020CD01000859040008E10300082B
:10001000550400088702000851060008000000008F
:100020000000000000000000000000007D04000847
:100030008B020008000000005B040008690500084E
:10004000E7010008E7010008E7010008E7010008F0
:10005000E7010008E7010008E7010008E7010008E0
:10006000E7010008E7010008E7010008E7010008D0
:10007000E7010008E7010008E7010008E7010008C0
:10008000E7010008E7010008E7010008E7010008B0
:10009000E7010008E7010008E7010008E7010008A0
:1000A000E7010008E7010008E7010008E701000890
:1000B000E7010008E7010008E7010008E701000880
:1000C000E7010008E7010008E7010008E701000870
:1000D000E7010008E7010008E7010008E701000860
:1000E000E7010008E7010008E7010008E701000850
:1000F000E7010008E7010008E7010008E701000840
:10010000E7010008E7010008E7010008E70100082F
:10011000E7010008E7010008E7010008E70100081F
:10012000E7010008E7010008E7010008E70100080F
:1001300000F002F800F03AF80AA090E8000C8244BF
:100140008344AAF10107DA4501D100F02FF8AFF29C
:10015000090EBAE80F0013F0010F18BFFB1A43F0A5
:10016000010318470805000028050000103A24BFC5
:1001700078C878C1FAD8520724BF30C830C144BF0C
:1001800004680C607047000000230024002500264E
:10019000103A28BF78C1FBD8520728BF30C148BFEA
:1001A0000B6070471FB51FBD10B510BD00F031F8D2
:1001B0001146FFF7F7FF00F04DFA00F04FF803B4D7
:1001C000FFF7F2FF03BC00F057F800000948804732
:1001D00009480047FEE7FEE7FEE7FEE7FEE7FEE729
:1001E000FEE7FEE7FEE7FEE704480549054A064B41
:1001F00070470000F1050008310100087800002078
:1002000078060020780200207802002070477047AE
:100210007047754600F02CF8AE4605006946534617
:1002200020F00700854618B020B5FFF7DDFFBDE8D8
:1002300020404FF000064FF000074FF000084FF04D
:10024000000B21F00701AC46ACE8C009ACE8C009DE
:10025000ACE8C009ACE8C0098D46704710B504464B
:10026000AFF300802046BDE81040FFF7A8BF0000B4
:10027000004870471800002001491820ABBEFEE777
:1002800026000200704700BFFEE77047074908607C
:100290004FF0E021096941F001014FF0E0221161C6
:1002A00000BF024909680029FBD170470000002007
:1002B0002DE9F041024600250026002000230024FD
:1002C000002791F803C00CF00F0591F803C00CF063
:1002D000100CBCF1000F03D091F802C04CEA0505E8
:1002E00091F800C0BCF1000F31D0146800202BE061
:1002F0004FF0010C0CFA00F3B1F800C00CEA030651
:100300009E4220D183004FF00F0C0CFA03F7BC4340
:1003100005FA03FC4CEA040491F803C0BCF1280F71
:1003200006D14FF0010C0CFA00FCC2F814C00AE030
:1003300091F803C0BCF1480F05D14FF0010C0CFA45
:1003400000FCC2F810C0401C0828D1D31460B1F8DA
:1003500000C0BCF1FF0F34DD546800202EE000F136
:10036000080C4FF0010808FA0CF3B1F800C00CEAD1
:1003700003069E4221D183004FF00F0C0CFA03F7C5
:10038000BC4305FA03FC4CEA040491F803C0BCF139
:10039000280F05D100F1080C08FA0CF8C2F81480F7
:1003A00091F803C0BCF1480F07D100F1080C4FF0E1
:1003B000010808FA0CF8C2F81080401C0828CED3B7
:1003C0005460BDE8F08102460020D3680B400BB1B9
:1003D000012000E0002070474161704701617047D3
:1003E00000BFFEE710B50446012C03D108210448E4
:1003F000FFF7F4FF1CB908210148FFF7EDFF10BD1E
:100400000010014008B50121102000F027F8082055
:10041000ADF8000010208DF8030003208DF80200D5
:1004200069460248FFF744FF08BD00000010014084
:1004300010B508210648FFF7C6FF012803D10020A8
:10044000FFF7D0FF02E00120FFF7CCFF10BD000056
:100450000010014000BFFEE77047704729B1064A0F
:1004600092690243044B9A6104E0034A9269824311
:10047000014B9A617047000000100240704710B5B0
:1004800000F002F810BD00000CB5002001900090B3
:100490003348006840F480303149086000BF30487C
:1004A000006800F4003000900198401C0190009812
:1004B00018B90198B0F5A06FF1D12948006800F48F
:1004C000003010B10120009001E000200090009861
:1004D000012843D12348006840F0100021490860FA
:1004E0000846006820F0030008600846006840F0F5
:1004F000020008601A484068194948600846406888
:1005000048600846406840F480604860084640689B
:1005100020F47C1048600846406840F4E8104860C9
:100520000846006840F08070086000BF0C48006812
:1005300000F000700028F9D00948406820F003005E
:10054000074948600846406840F00200486000BF24
:100550000348406800F00C000828F9D10CBD0000E9
:10056000001002400020024002480068401E01497D
:10057000086070470000002030B51A48006842F259
:100580001072B0FBF2F1B1F1807F01D301201DE0C8
:1005900021F07F40401E4FF0E022506150170F22A3
:1005A000002807DA13071D0E0F4B00F00F04241F5D
:1005B0001D5503E013071C0E0C4B1C5400BF0020FC
:1005C0004FF0E022906107201061002008B100BFC9
:1005D000FEE74FF0E020006920F001004FF0E0213D
:1005E000086130BD0400002018ED00E000E400E0E8
:1005F00010B51348006840F0010011490860084632
:100600004068104908400E494860084600680E4995
:1006100008400B4908600846006820F48020086004
:100620000846406820F4FE0048604FF41F008860D0
:10063000FFF725FF4FF000600449086010BD00007F
:10064000001002400000FFF8FFFFF6FE08ED00E09A
:1006500000BFFEE7FFF7D6FEFFF78EFF05E0FFF7CE
:10066000E7FE41F28830FFF711FEF8E78C0600083C
:1006700000000020180000006C010008A40600081B
:10068000180000206006000088010008000000003B
:1006900000A24A0400000000000000000102030460
:0406A0000607080938
:04000005080001CD21
:00000001FF
